:100000000C947A000C94A2000C94A2000C94A20010
:100010000C94A2000C94A2000C94A2000C94A200D8
:100020000C94A2000C94A2000C94A2000C94A200C8
:100030000C94A2000C94A2000C94A2000C94A200B8
:100040000C9497080C94A2000C9407090C94E108F6
:100050000C94A2000C94A2000C94A2000C94A20098
:100060000C94A2000C94A200CDCCCC3D0AD7233C2A
:1000700017B7D13877CC2B329595E6241FB14F0AAC
:10008000000020410000C84200401C4620BCBE4C7D
:10009000CA1B0E5AAEC59D74000000002400270044
:1000A0002A0000000000250028002B0000000008A6
:1000B000000201000003040700000000000000002F
:1000C00000000000230026002900040404040404A6
:1000D00004040202020202020303030303030102F7
:1000E00004081020408001020408102001020408C6
:1000F0001020390911241FBECFEFD8E0DEBFCDBFDD
:1001000022E0ACE6B1E001C01D92AF33B207E1F7E7
:1001100011E0A0E0B1E0E2E4F2E202C005900D924D
:10012000AC36B107D9F710E0CAE7D0E004C0219798
:10013000FE010E94270FC937D107C9F70E9486091F
:100140000C941F110C940000CF92DF92EF92FF925B
:10015000CF93DF93B0912F02A0E08111AB2F80915C
:10016000300290E0880F991FAC0140545F4FC0905F
:100170003502D0903602E0903702F090380230E03D
:1001800020E0FA01C591D491E881B90190E080E0C6
:10019000EB23EA130AC02F5F3F4F6C157D058E05D8
:1001A0009F0578F36FEF7FEFCB01DF91CF91FF9049
:1001B000EF90DF90CF90089590E0FC01E455FF4F61
:1001C0002491FC01E252FF4F3491FC01E653FF4FB2
:1001D000E491EE23C9F0222339F0233001F1A8F491
:1001E000213019F1223029F1F0E0EE0FFF1FEE551A
:1001F000FF4FA591B4918FB7F894EC91611126C08F
:1002000030953E233C938FBF08952730A9F02830C6
:10021000C9F0243049F7809180008F7D03C0809120
:1002200080008F7780938000DFCF84B58F7784BD87
:10023000DBCF84B58F7DFBCF8091B0008F7780932B
:10024000B000D2CF8091B0008F7DF9CF3E2BDACFB6
:10025000CF93DF9390E0FC01E252FF4F249186534D
:100260009F4FFC0184918823C9F090E0880F991F6B
:10027000FC01E856FF4FA591B491FC01EE55FF4FEC
:10028000C591D49161110DC09FB7F8948C912095C0
:1002900082238C938881282328839FBFDF91CF916D
:1002A0000895623051F49FB7F8943C91822F809565
:1002B00083238C93E8812E2BEFCF8FB7F894EC91AA
:1002C0002E2B2C938FBFEACF3FB7F89480918301F8
:1002D00090918401A0918501B091860126B5A89BDB
:1002E00005C02F3F19F00196A11DB11D3FBFBA2FC8
:1002F000A92F982F8827BC01CD01620F711D811D88
:10030000911D42E0660F771F881F991F4A95D1F70C
:1003100008958F929F92AF92BF92CF92DF92EF9209
:10032000FF924B015C010E9464016B017C010E9401
:1003300064016C197D098E099F09683E734081052F
:100340009105A8F321E0821A9108A108B10888EE6E
:10035000C80E83E0D81EE11CF11C81149104A10495
:10036000B10429F7FF90EF90DF90CF90BF90AF904E
:100370009F908F900895CF92DF92EF92FF920F930C
:100380001F93CF93DF93CDB7DEB7C054D1400FB6E4
:10039000F894DEBF0FBECDBF2FB7F89480918701D0
:1003A00090918801A0918901B0918A012FBF40915D
:1003B00031025091320260913302709134028C010B
:1003C0009D01041B150B260B370BB901A801403DFD
:1003D00057406105710590F480913902C05CDE4F91
:1003E0000FB6F894DEBF0FBECDBFDF91CF911F9146
:1003F0000F91FF90EF90DF90CF900895809331029E
:1004000090933202A0933302B093340210922C02E4
:1004100010922B0210922A021092290210922802A6
:1004200062E080912D020E94280161E070E080E08E
:1004300090E00E94890161E080912D020E942801D4
:1004400060E080912D020E94DC0080912E02855197
:10045000823020F58BE291E10197F1F762E0809123
:100460002D020E94280180913A0290E0823091058D
:1004700038F0880F991F880F991F05970197F1F79A
:10048000F89480E00E94A4006F3F7F4F8F4F9F4FF2
:1004900061F410923902789480E0A0CF64E170E0BA
:1004A00080E090E00E948901D9CF81E00E94A40001
:1004B0006F3F7F4F8F4F9F4F61F38E010F5F1F4F35
:1004C0006E018FEBC81A8EEFD80A780180E00E9487
:1004D000A400F701608371838283938381E00E948B
:1004E000A400F7016483758386839783F8E0EF0E99
:1004F000F11CEC14FD0451F7789430E020E0F80191
:10050000C080D180E280F38044815581668177810B
:10051000FFEFCF16DF06EF06FF0631F04F3F8FEFFC
:1005200058076807780719F410923902B5CFF90116
:1005300083E0F595E7958A95E1F7E85DFD4F8081C9
:10054000880FC416D506E606F70610F180832F5FE4
:100550003F4F085F1F4F2832310589F640912C022A
:100560002091280280912902280F3327331F809180
:100570002A02280F311D80912B02820F932F911D8B
:1005800099274817190681F681E08093390226CF12
:100590008160DCCFAF92BF92CF92DF92EF92FF9259
:1005A0000F931F93CF93DF936C017B018B01040F9B
:1005B000151FEB015E01AE18BF08C017D10759F037
:1005C0006991D601ED91FC910190F081E02DC60179
:1005D0000995892B79F7C501DF91CF911F910F9173
:1005E000FF90EF90DF90CF90BF90AF900895FC0107
:1005F000538D448D252F30E0842F90E0821B930B88
:10060000541710F0CF96089501970895FC01918D2D
:10061000828D981761F0A28DAE0FBF2FB11D5D9630
:100620008C91928D9F5F9F73928F90E008958FEFD2
:100630009FEF0895FC01918D828D981731F0828D86
:10064000E80FF11D858D90E008958FEF9FEF0895DD
:10065000FC01918D228D892F90E0805C9F4F821B41
:1006600091098F73992708958BE891E00E942803E0
:1006700021E0892B09F420E0822F089580E090E0AA
:10068000892B29F00E94340381110C9400000895F5
:10069000FC01A48DA80FB92FB11DA35ABF4F2C91F7
:1006A000848D90E001968F739927848FA689B789EE
:1006B0002C93A089B1898C91837080648C93938DE5
:1006C000848D981306C00288F389E02D80818F7D88
:1006D00080830895EF92FF920F931F93CF93DF9340
:1006E000EC0181E0888F9B8D8C8D98131AC0E8896E
:1006F000F989808185FF15C09FB7F894EE89FF893D
:100700006083E889F98980818370806480839FBFDA
:1007100081E090E0DF91CF911F910F91FF90EF90DA
:100720000895F62E0B8D10E00F5F1F4F0F731127EA
:10073000E02E8C8D8E110CC00FB607FCFACFE88925
:10074000F989808185FFF5CFCE010E944803F1CF62
:10075000EB8DEC0FFD2FF11DE35AFF4FF0829FB799
:10076000F8940B8FEA89FB8980818062CFCFCF9389
:10077000DF93EC01888D8823B9F0AA89BB89E889C9
:10078000F9898C9185FD03C0808186FD0DC00FB66F
:1007900007FCF7CF8C9185FFF2CF808185FFEDCFED
:1007A000CE010E944803E9CFDF91CF910895FC016B
:1007B0002581222339F0F8E02F0290011124820FC5
:1007C000931F089590E080E00895CF93DF93EC01AC
:1007D000FB01309779F0DC010D900020E9F71197CB
:1007E000A81BB90B9481907894609483D183C083C3
:1007F000B383A283DF91CF910895EF92FF920F937D
:100800001F93CF93DF93EC018C81982F9F7739F45E
:10081000807880628C83198218821B821A828C8174
:1008200085FD09C080E090E0DF91CF911F910F918D
:10083000FF90EF90089561157105A1F37A018B0186
:1008400088819981009749F1DC011696ED91FC9120
:10085000D8010D900020E9F71197AD01401B510B15
:1008600030E020E0309749F0DF010D900020E9F7FB
:100870009D01215031092E1B3F0B2417350751F4E0
:10088000D801200F311F2A173B0771F25D9141916A
:100890005417C9F30E94D703D5CFD7011496ED9111
:1008A000FC91159712968D919C9113970896E817D5
:1008B000F90720F481E018968C93B4CF38971596F9
:1008C000FC93EE931497309709F4ACCFAA81BB81C7
:1008D000109791F0CF018A1B9B0B23E0959587958C
:1008E0002A95E1F715968C93FB83EA83158214828F
:1008F00017830683CF0198CFF983E883F5CF0F9351
:100900001F93CF93DF93EC0188819981009759F071
:100910002A813B812617370730F081E0DF91CF91A4
:100920001F910F9108958B016F5F7F4F0E945210AE
:10093000009759F0998388831B830A832C813D811A
:10094000232B59F7FC011082E8CF80E0E7CFCF924C
:10095000DF92EF92FF920F931F93CF93DF938C015F
:10096000DC019296ED91FC91E80FF91F12826C0167
:10097000B2E0CB0ED11CC114D10449F1F6010190B3
:100980000020E9F73197EC19FD09F1F0DC01ED9059
:10099000FC90D7011496CD91DC91CE0FDF1FBE01E4
:1009A000C7010E947F04882391F0F70120813181E3
:1009B00084819581B601820F931F0E941811D7017F
:1009C0001596DC93CE931497F80113A212A2D801C6
:1009D00092968D919C91DF91CF911F910F91FF90F5
:1009E000EF90DF90CF9008951F93CF93DF93EC01AA
:1009F000162F8AA19BA101968097B8F48AA19BA18A
:100A00009C012F5F3F4F3BA32AA38C0F9D1FFC012E
:100A1000128321E030E08CA19DA1820F931F9DA342
:100A20008CA3DF91CF911F910895CE010E94A7045E
:100A3000892B21F330E020E0EECFBF92CF92DF92FE
:100A4000EF92FF920F931F93CF93DF93EC016A0114
:100A50008B017B01E40EF51EE016F106D1F0F801E2
:100A6000B1908F018AA19BA10196809760F48AA121
:100A70009BA19C012F5F3F4F3BA32AA38C0F9D1F7F
:100A8000FC01B282E9CFCE010E94A704892B79F341
:100A9000E3CF4CA15DA14C0D5D1D5DA34CA3DF9187
:100AA000CF911F910F91FF90EF90DF90CF90BF906B
:100AB00008958F929F92AF92BF92CF92DF92EF9262
:100AC000FF920F931F93CF93DF93CDB7DEB7669757
:100AD0000FB6F894DEBF0FBECDBF6C018E01095E6C
:100AE0001F4F78018AE0882E912CA12CB12CCB01CC
:100AF000BA01A50194010E94050F942F852F605D16
:100B0000F80162938F01A901692F782F41155105D2
:100B10006105710561F7A7014E1B5F0BBF01C6019F
:100B20000E941D0566960FB6F894DEBF0FBECDBFBE
:100B3000DF91CF911F910F91FF90EF90DF90CF90B9
:100B4000BF90AF909F908F900895FB01019000207F
:100B5000E9F73197AF01461B570B0C941D051F9306
:100B6000CF93DF93E8E1F1E01281112379F032961F
:100B700021816213F9CFEC016CE50E94F404612F2E
:100B8000CE01DF91CF911F910C94F4046111F9CF44
:100B900069E271E0DF91CF911F910C94A5052F922E
:100BA0003F924F925F926F927F928F929F92AF92FD
:100BB000BF92CF92DF92EF92FF920F931F93CF934A
:100BC000DF93CDB7DEB76C970FB6F894DEBF0FBEDC
:100BD000CDBF8C011B01DC0114968C9114978F778B
:100BE000863009F499C268F58230A0F11296ED9032
:100BF000FC901397CC901196DC90843008F05DC285
:100C0000A701B601C1010E941D05F10184A195A1B2
:100C10006C960FB6F894DEBF0FBECDBFDF91CF91BB
:100C20001F910F91FF90EF90DF90CF90BF90AF900A
:100C30009F908F907F906F905F904F903F902F90FC
:100C400008958C3069F160F4883009F460C28A300C
:100C500009F446C260E371E0C1010E94A505ECC140
:100C6000803209F4F3C18034A9F76BE5C1010E9419
:100C7000F404F801008111810115110509F4E1C1A5
:100C8000B101C8010E94CF05C8010E94D7038C01A1
:100C9000892B09F4D6C16CE2C1010E94F404ECCFA7
:100CA000F801C080D180E280F380A7019601C701DE
:100CB000B6010E94F50C8111CDCF20E030E0A901F2
:100CC000C701B6010E94F50C882379F0A7019601AF
:100CD000C701B6010E94510E9B01AC01C701B601CC
:100CE0000E94F50C882309F4B5CF20E030E0A9017B
:100CF000C701B6010E94F50C87FF08C06DE2C10173
:100D00000E94F404F7FAF094F7F8F09420E836E93A
:100D100048E15BE4C701B6010E94EC0E87FD88C084
:100D200074E1A72EB12C00E210E0188E1F8AF501A5
:100D3000E058FF4F6591759185919491A7019601B7
:100D40000E94F50C18169CF0F501E859FF4F25910B
:100D5000359145915491C701B6010E945B0D6B011D
:100D60007C012F89388D200F311F388F2F8B1595DF
:100D7000079534E0A31AB1088CEFA8168FEFB806D8
:100D8000B1F655245A9420E030E0A901C701B6011C
:100D90000E94EC0E18160CF052C02CEA35EC47E21B
:100DA00057E3C701B6010E94F50C18160CF447C0B2
:100DB000A52DB4E0AB02C0011124B12CA12CFC0183
:100DC000E859FF4F3F019C0120583F4F49013FEF39
:100DD000531609F434C0F301EA0DFB1D65917591BA
:100DE0008591949120E030E040E251E40E945B0D57
:100DF000A70196010E94EC0E18169CF4F401EA0D6E
:100E0000FB1D2591359145915491C701B6010E9472
:100E10005B0D6B017C018F89988D801B910B988FE6
:100E20008F8B159507955A9494E0A91AB108CFCFE6
:100E300000E210E055E0552E188E1F8AA4CFC7019E
:100E4000B6010E94BD0E4B015C012B013C0106E086
:100E500080E492E4AFE0B0E0898F9A8FAB8FBC8FD3
:100E6000102F01509AE04916510461047104C8F032
:100E7000698D7A8D8B8D9C8D2AE030E040E050E0CA
:100E80000E94050F298F3A8F4B8F5C8FC301B201EF
:100E90002AE030E040E050E00E94050F29013A01CD
:100EA000DFCFC501B4010E94FA0C9B01AC01C70160
:100EB000B6010E94500E6B017C01698D7A8D8B8D7D
:100EC0009C8D0E94FA0C9B01AC01C701B6010E94E7
:100ED0005B0D2B013C010E94BD0E6B017C010E9449
:100EE000FA0C9B01AC01C301B2010E94500E9B01A0
:100EF000AC010E94510E0E94BD0EC60ED71EE81E08
:100F0000F91E898D9A8DAB8DBC8DC816D906EA065F
:100F1000FB06D8F09FEF891A990AA90AB90AAF8986
:100F2000B88DAB2B39F1BAE08B169104A104B10452
:100F300008F1EF89F88D3196F88FEF8BC12CD12C09
:100F40007601812C912C540183942AE0422E512C5D
:100F5000612C712CC701B601A30192010E94050FFB
:100F6000672B682B692B51F4111644F469017A013F
:100F70001150F0CFC12CD12C7601E7CFB501A401DF
:100F8000C1010E945905112371F14E01F1E18F0E4B
:100F9000911C012F54019AE0492E512C612C712C87
:100FA000015068F0C701B601A30192010E94050F2C
:100FB000605DD4016E934D0169017A01F1CF812FFB
:100FC00090E0BC0160957095F501E81BF90B319735
:100FD0008EE2808344275527461B570B6A0D7B1DE5
:100FE000C1010E941D05EF89F88DEF2B29F165E6FF
:100FF000C1010E94F4040F89188D17FF07C06DE22C
:10100000C1010E94F404119501951109FE01779622
:101010009F018AE0E82EF12CC801B7010E94F10E71
:10102000805D82938B01672BB9F7A9014E1B5F0B83
:10103000BF01C1010E941D05D10194968D919C9123
:10104000E7CD6DE5C1010E94F404F6CF6BE7C10165
:101050000E94F404F801008111810115110559F174
:10106000D8011696CC9016971796DC9062E2C101D3
:101070000E94F4047601F70161917F01662321F05B
:10108000C1010E94AF05F7CF62E2C1010E94F404E2
:101090006AE3C1010E94F404B101C8010E94CF05B6
:1010A000C8010E94D7038C01892B29F06CE2C10191
:1010B0000E94F404D2CF6DE7C5CF62E2C1010E9465
:1010C000F4048601E00EF11EE016F10639F0F80195
:1010D00061918F01C1010E94AF05F6CF62E2B2CFEC
:1010E000CD90DD90ED90FC90B701A601F7FE0BC00E
:1010F0006DE2C1010E94F40444275527BA014C193E
:101100005D096E097F09C1010E9459057ECD4D918F
:101110005D916D917C91F7CF8C9165E371E08111C8
:1011200002C06AE371E0C1010E94A5056ECD1F9265
:101130000F920FB60F9211242F933F938F939F938B
:10114000AF93BF938091870190918801A09189010D
:10115000B0918A013091820123E0230F2D3758F599
:101160000196A11DB11D2093820180938701909368
:101170008801A0938901B0938A01809183019091A5
:101180008401A0918501B09186010196A11DB11D38
:101190008093830190938401A0938501B09386018D
:1011A000BF91AF919F918F913F912F910F900FBE63
:1011B0000F901F90189526E8230F0296A11DB11DD0
:1011C000D2CF1F920F920FB60F9211242F933F93FD
:1011D0004F935F936F937F938F939F93AF93BF933F
:1011E000EF93FF938BE891E00E944803FF91EF910A
:1011F000BF91AF919F918F917F916F915F914F912F
:101200003F912F910F900FBE0F901F9018951F9236
:101210000F920FB60F9211242F938F939F93EF93FA
:10122000FF93E0919B01F0919C018081E091A101ED
:10123000F091A20182FD1BC090818091A4018F5F7B
:101240008F732091A501821741F0E091A401F0E095
:10125000E557FE4F958F8093A401FF91EF919F91E9
:101260008F912F910F900FBE0F901F901895808136
:10127000F4CFEBE8F1E01382128288EE93E0A0E075
:10128000B0E084839583A683B7838AE091E091835D
:10129000808385EC90E09587848784EC90E0978745
:1012A000868780EC90E0918B808B81EC90E0938B33
:1012B000828B82EC90E0958B848B86EC90E0978B10
:1012C000868B118E128E138E148EA8E2B2E085E00A
:1012D00015968C93159786E116968C931697E3EEE8
:1012E000F0E0E4911796EC931797EFECF0E0E491BF
:1012F0001896EC93189740E85EE360E070E01D9666
:101300004D935D936D937C9350970895CF93DF93A6
:10131000CDB7DEB7CD5CD1090FB6F894DEBF0FBEF6
:10132000CDBF789484B5826084BD84B5816084BD6E
:1013300085B5826085BD85B5816085BD80916E0073
:10134000816080936E0010928100809181008260A4
:1013500080938100809181008160809381008091E1
:1013600080008160809380008091B10084608093D0
:10137000B1008091B00081608093B00080917A00CC
:10138000846080937A0080917A00826080937A00F2
:1013900080917A00816080937A0080917A008068E1
:1013A00080937A001092C100E0919B01F0919C0122
:1013B00082E08083E0919701F09198011082E091A2
:1013C0009901F0919A018FEC80831092A301E09132
:1013D0009F01F091A00186E08083E0919D01F09152
:1013E0009E01808180618083E0919D01F0919E014A
:1013F000808188608083E0919D01F0919E018081D1
:1014000080688083E0919D01F0919E0180818F7DB5
:10141000808362E080912D020E9428012FB7F8940A
:101420008091870190918801A0918901B0918A01F2
:101430002FBF805D9740A109B1098093310290933D
:101440003202A0933302B093340287E380933A02CE
:1014500061E08AE00E94280161E082E00E942801A8
:1014600060E089E00E94280187EB90E08C0F9D1FCF
:101470000196C453DF4F99838883CC5CD040E7EB5F
:10148000F0E0EC0FFD1F3A961F018E010A531F4F2B
:1014900060E08AE00E94DC0083E090E00197F1F7D1
:1014A00061E08AE00E94DC0083E290E00197F1F7BE
:1014B00060E08AE00E94DC0010927E0110927F01C1
:1014C000109280011092810110927D0110927C0196
:1014D0000E94BB01882351F080912E028B3030F0A6
:1014E0008D3058F08551823008F440C0812C912C09
:1014F00020ECA22E2FE7B22E1EC06091290270E0D0
:1015000090E080E00E94FC0C2DEC3CEC4CEC5DE3A8
:101510000E945B0D6B017C016091280270E090E0FD
:1015200080E00E94FC0C9B01AC01C701B6010E9447
:10153000510E4B015C018092780190927901A0924A
:101540007A01B0927B010E94BB01882341F0809117
:101550002E028C3009F4F3C1D8F48B3091F1C12CF8
:10156000D12C80ECE82E8FE7F82E55C06091280230
:101570007091290276276727762790E080E00E9405
:10158000FA0C2DEC3CEC4CEC5DE30E945B0DD1CFF2
:101590008551823020F770902A02672D70E0762FF7
:1015A000662766277F7780912B02682B90E080E08A
:1015B0000E94FA0C2DEC3CEC4CEC5DE30E945B0DC0
:1015C000DAC160912A0270E090E080E00E94FA0C9B
:1015D0002B013C01F0902B02F7FE0AC0AC019B01ED
:1015E00060E070E080E89FEB0E94500E2B013C0110
:1015F0006F2D6F7070E090E080E00E94FC0C2DEC8D
:101600003CEC4CEC5DE30E945B0DA30192010E9457
:10161000510E6B017C01C0927401D0927501E09271
:101620007601F092770180917C0190917D01019784
:1016300090937D0180937C01892B61F0199BF3CFFE
:101640000E94640160937001709371018093720134
:101650009093730180917C0190917D01019790930B
:101660007D0180937C01892BD1F01999F3CF0E94E1
:10167000640140907001509071016090720170900F
:10168000730164197509860997090E94FA0C609321
:101690007E0170937F01809380019093810120E00F
:1016A00030E040E05FE360917E0170917F018091C6
:1016B0008001909181010E945B0D24E037EE4CE0A7
:1016C0005DE30E945B0D2B013C0140926C01509246
:1016D0006D0160926E0170926F0180E094E00E9453
:1016E0002D0F9C013C5F009711F430E020E0C854BE
:1016F000DF4F99838883C85BD040C654DF4F9983FE
:101700008883CA5BD040C454DF4F39832883CC5BC5
:10171000D040C254DF4F39832883CE5BD040C054C1
:10172000DF4F1882C05CD040CB53DF4F1882C55CBE
:10173000D04020E030E048EC53E4C301B2010E9405
:10174000EC0E18160CF020C1C453DF4F48815981AC
:10175000CC5CD04060E471E0C1010E94FD03BC019B
:1017600089E491E00E94E50320E030E040EF51E49D
:10177000C701B6010E94EC0E181654F020E030E0CC
:1017800048E452E4C501B4010E94F50C60E087FD15
:1017900061E082E00E94DC00C453DF4F4881598140
:1017A000CC5CD04063E571E0C1010E94FD03FC0107
:1017B000892B41F0948190789C609483C082D1827F
:1017C000E282F382C453DF4F48815981CC5CD04020
:1017D0006FE571E0C1010E94FD03FC01892B41F01E
:1017E000948190789C60948380829182A282B3825B
:1017F000F80111821082138212821582148270E025
:1018000060E0C8010E947F04F801208131818111CC
:10181000E4C02115310519F0C9010E94C90FF80172
:10182000118210821582148213821282CD56DF4FEC
:1018300019830883C359D040CB54DF4F19821882D3
:10184000C55BD04084E2FE01ED56FF4FDE01A15999
:10185000BF4F01900D928A95E1F784E2FE01E159B4
:10186000FF4FDE01A55BBF4F01900D928A95E1F716
:1018700084E2FE01E55BFF4FDE01979601900D9239
:101880008A95E1F784E2FE01B796DE011196019098
:101890000D928A95E1F71EA21DA2CE0187960E94A5
:1018A000A704CE01855B9F4F0E94A704BE016F5F16
:1018B0007F4FC1010E94CF05CE0101960E94A7046F
:1018C000CE0181599F4F0E94A704CE018D569F4F94
:1018D0000E94A704F80144815581608171818BE8E1
:1018E00091E00E94CA0242E050E068E671E08BE8B5
:1018F00091E00E94CA0268EE73E080E090E00E94EE
:101900008901F80180819181009711F00E94C90F2F
:10191000C854DF4F88819981C85BD040009711F08F
:101920000E94C90F80E090E0892B09F4B1CD0E949C
:101930003403882309F4ACCD0E940000A9CD709037
:101940002A02672D70E090E080E00E94FA0C6B01A3
:101950007C0160912B026F7070E090E080E00E944B
:10196000FC0C2DEC3CEC4CEC5DE30E945B0DA70104
:1019700096010E94510E6B017C0177FE4CCEF7FA66
:10198000F094F7F8F09447CE20E030E040E050E4E7
:10199000C301B2010E94F50CC453DF4F4881598145
:1019A000CC5CD04060E471E087FF07C0C1010E94B9
:1019B000FD03BC018FE491E0D5CEC1010E94FD037F
:1019C000FC01892B09F4D0CE948190789C6094839B
:1019D0004082518262827382C7CE1582148268E28D
:1019E00071E0C9010E94181121CF0E94370D08F43F
:1019F00081E00895E89409C097FB3EF490958095A6
:101A0000709561957F4F8F4F9F4F9923A9F0F92FC4
:101A100096E9BB279395F695879577956795B79542
:101A2000F111F8CFFAF4BB0F11F460FF1BC06F5F28
:101A30007F4F8F4F9F4F16C0882311F096E911C03A
:101A4000772321F09EE8872F762F05C0662371F05B
:101A500096E8862F70E060E02AF09A95660F771F6F
:101A6000881FDAF7880F9695879597F90895990F4B
:101A70000008550FAA0BE0E8FEEF16161706E80758
:101A8000F907C0F012161306E407F50798F0621B79
:101A9000730B840B950B39F40A2661F0232B242B4E
:101AA000252B21F408950A2609F4A140A6958FEF6D
:101AB000811D811D08950E946E0D0C94DF0D0E9402
:101AC000D10D38F00E94D80D20F0952311F00C9420
:101AD000C80D0C94CE0D11240C94130E0E94F00D21
:101AE00070F3959FC1F3950F50E0551F629FF00171
:101AF000729FBB27F00DB11D639FAA27F00DB11D8A
:101B0000AA1F649F6627B00DA11D661F829F222712
:101B1000B00DA11D621F739FB00DA11D621F839F99
:101B2000A00D611D221F749F3327A00D611D231F6F
:101B3000849F600D211D822F762F6A2F11249F57BD
:101B400050409AF0F1F088234AF0EE0FFF1FBB1FC0
:101B5000661F771F881F91505040A9F79E3F51057F
:101B600080F00C94C80D0C94130E5F3FE4F3983E84
:101B7000D4F3869577956795B795F795E7959F5F29
:101B8000C1F7FE2B880F911D9695879597F90895BB
:101B900097F99F6780E870E060E008959FEF80EC20
:101BA000089500240A9416161706180609060895C3
:101BB00000240A9412161306140605060895092E29
:101BC0000394000C11F4882352F0BB0F40F4BF2B98
:101BD00011F460FF04C06F5F7F4F8F4F9F4F0895D8
:101BE00057FD9058440F551F59F05F3F71F04795CE
:101BF000880F97FB991F61F09F3F79F087950895B3
:101C0000121613061406551FF2CF4695F1DF08C0D1
:101C1000161617061806991FF1CF869571056105EE
:101C200008940895E894BB2766277727CB0197F996
:101C300008952F923F924F925F926F927F928F9270
:101C40009F92AF92BF92CF92DF92EF92FF920F934B
:101C50001F93CF93DF93CDB7DEB7CA1BDB0B0FB655
:101C6000F894DEBF0FBECDBF09942A883988488812
:101C70005F846E847D848C849B84AA84B984C884A8
:101C8000DF80EE80FD800C811B81AA81B981CE0F9F
:101C9000D11D0FB6F894DEBF0FBECDBFED01089584
:101CA0005058BB27AA270E94680E0C94DF0D0E9493
:101CB000D10D38F00E94D80D20F039F49F3F19F46F
:101CC00026F40C94CE0D0EF4E095E7FB0C94C80DB1
:101CD000E92F0E94F00D58F3BA17620773078407C3
:101CE000950720F079F4A6F50C94120E0EF4E09509
:101CF0000B2EBA2FA02D0B01B90190010C01CA01C6
:101D0000A0011124FF27591B99F0593F50F4503E70
:101D100068F11A16F040A22F232F342F4427585F62
:101D2000F3CF469537952795A795F0405395C9F77A
:101D30007EF41F16BA0B620B730B840BBAF0915032
:101D4000A1F0FF0FBB1F661F771F881FC2F70EC0D1
:101D5000BA0F621F731F841F48F4879577956795A4
:101D6000B795F7959E3F08F0B0CF9395880F08F090
:101D70009927EE0F9795879508950E94F80D88F0A2
:101D80009F5798F0B92F9927B751B0F0E1F0660F3F
:101D9000771F881F991F1AF0BA95C9F714C0B13080
:101DA00091F00E94120EB1E008950C94120E672F6C
:101DB000782F8827B85F39F0B93FCCF386957795AF
:101DC0006795B395D9F73EF4909580957095619598
:101DD0007F4F8F4F9F4F08950E94370D08F48FEF6C
:101DE0000895AA1BBB1B51E107C0AA1FBB1FA61762
:101DF000B70710F0A61BB70B881F991F5A95A9F7B4
:101E000080959095BC01CD010895A1E21A2EAA1BE0
:101E1000BB1BFD010DC0AA1FBB1FEE1FFF1FA2179A
:101E2000B307E407F50720F0A21BB30BE40BF50B97
:101E3000661F771F881F991F1A9469F76095709520
:101E4000809590959B01AC01BD01CF010895EE0FE7
:101E5000FF1F0590F491E02D09940F931F93CF93EA
:101E6000DF938230910510F482E090E0E0913D0232
:101E7000F0913E0230E020E0B0E0A0E0309799F42D
:101E80002115310509F44AC0281B390B24303105CE
:101E9000D8F58A819B816115710589F1FB019383D6
:101EA0008283FE0111C04081518102811381481754
:101EB0005907E0F04817590799F4109761F0129606
:101EC0000C93129713961C933296CF01DF91CF910A
:101ED0001F910F91089500933D0210933E02F4CF9D
:101EE0002115310551F04217530738F0A901DB01E4
:101EF0009A01BD01DF01F801C1CFEF01F9CF909345
:101F00003E0280933D02CDCFFE01E20FF31F81938D
:101F100091932250310939832883D7CF20913B02F6
:101F200030913C02232B41F42091020130910301B6
:101F300030933C0220933B0220910001309101013B
:101F40002115310541F42DB73EB740910401509160
:101F50000501241B350BE0913B02F0913C02E21796
:101F6000F307A0F42E1B3F0B2817390778F0AC01BC
:101F70004E5F5F4F2417350748F04E0F5F1F509399
:101F80003C0240933B02819391939FCFF0E0E0E0CD
:101F90009CCFCF93DF930097E9F0FC013297138237
:101FA0001282A0913D02B0913E02ED0130E020E0AE
:101FB0001097A1F420813181820F931F20913B0261
:101FC00030913C022817390709F061C0F0933C02B8
:101FD000E0933B02DF91CF910895EA01CE17DF072E
:101FE000E8F54A815B819E0141155105B1F7E90190
:101FF000FB83EA8349915991C40FD51FEC17FD0764
:1020000061F4808191810296840F951FE901998383
:102010008883828193819B838A83F0E0E0E012963B
:102020008D919C9113970097B9F52D913C91119743
:10203000CD010296820F931F20913B0230913C020A
:102040002817390739F6309751F510923E02109251
:102050003D02B0933C02A0933B02BCCFD383C2832A
:1020600040815181840F951FC817D90761F44E5FD5
:102070005F4F88819981480F591F518340838A811E
:102080009B81938382832115310509F0B0CFF093B2
:102090003E02E0933D029ECFFD01DC01C0CF1382E2
:1020A0001282D7CFB0E0A0E0E8E5F0E10C941B0E7F
:1020B0008C01009751F4CB010E942D0F8C01C801B7
:1020C000CDB7DEB7E0E10C94370EFC01E60FF71F49
:1020D0009C0122503109E217F30708F49DC0D90191
:1020E000CD91DC911197C617D70798F0C530D1056F
:1020F00030F3CE0104978617970708F3C61BD70B5A
:102100002297C193D1936D937C93CF010E94C90F05
:10211000D6CF5B01AC1ABD0A4C018C0E9D1EA0915E
:102120003D02B0913E02512C412CF12CE12C109734
:1021300031F580913B0290913C028815990509F098
:102140005CC04616570608F058C080910001909177
:102150000101009741F48DB79EB740910401509161
:102160000501841B950BE817F90708F055C0F0939B
:102170003C02E0933B02F90171836083A0CF8D9113
:102180009C91119712966C90129713967C901397CE
:10219000A815B90559F56C0142E0C40ED11CCA144A
:1021A000DB0420F1AC014A195B09DA01129615979C
:1021B00080F06282738251834083D9016D937C9356
:1021C000E114F10471F0D7011396FC93EE9312978A
:1021D00076CF22968C0F9D1FF90191838083F301A6
:1021E000EFCFF0933E02E0933D0269CF48165906C7
:1021F00008F42C017D01D3019ACFCB010E942D0F51
:102200007C01009749F0AE01B8010E940F11C8018E
:102210000E94C90F870153CF10E000E050CFFB01AF
:10222000DC0102C001900D9241505040D8F7089552
:10223000FB01DC0101900D920020E1F70895F89474
:02224000FFCFCE
:1022420000003F028000000000006A03CA02F70299
:10225200B703280306031A032F2F22225C5C6208AD
:10226200660C6E0A720D7409005C753030303000F5
:102272006E756C6C00747275650066616C736500D6
:1022820064697374616E6365003E20343030003CD3
:1022920020320074656D70657261747572650068D4
:0C22A200756D6964697479000D0A000014
:00000001FF
